:100000000C9434000C9446000C9446000C9446006A
:100010000C9446000C9446000C9446000C9470011D
:100020000C9446000C9446000C9446000C94460038
:100030000C9446000C9446000C9446000C94460028
:100040000C9446000C9446000C94EE000C942B018A
:100050000C9406010C9486000C9446000C94460007
:100060000C9446000C94460011241FBECFEFD8E03C
:10007000DEBFCDBF21E0A0E0B1E001C01D92AA33F8
:10008000B207E1F70E94BA020C943A050C94000002
:10009000ECE7F0E08081807F8083808180648083D2
:1000A000EAE7F0E080818868808310920401109272
:1000B00039010895109204010895109203011092DD
:1000C0000201EAE7F0E08081866080830895EAE734
:1000D000F0E080818F7A8083ECE7F0E08081807FA0
:1000E00080830895809104018F5F809304012091A3
:1000F0000401ECE7F0E03081215081E090E001C0A4
:10010000880F2A95EAF7832B808308951F920F9218
:100110000FB60F9211242F933F934F935F936F93DA
:100120007F938F939F93AF93BF93EF93FF93209110
:100130000401ECE7F0E03081215081E090E002C062
:10014000880F991F2A95E2F78095909583238083E5
:1001500085B18F5F85B920917800809102019091DF
:100160000301822B90930301809302012091790077
:100170008091020190910301922B9093030180934F
:100180000201EAE7F0E080818B7F808381E0809349
:1001900039010E947200FF91EF91BF91AF919F9141
:1001A0008F917F916F915F914F913F912F910F9020
:1001B0000FBE0F901F90189580910201909103013E
:1001C00008952091040181E090E0223011F480E054
:1001D00090E008958091040190E008951F920F929D
:1001E0000FB60F9211248F93EF93FF93E1ECF0E0A1
:1001F00080818F7B8083808180648083FF91EF91F9
:100200008F910F900FBE0F901F9018951F920F9215
:100210000FB60F9211248F93EF93FF93E091370164
:10022000F0E0EB5FFE4F8081813231F481E080931A
:1002300038011092370107C0809137018F5F80939A
:10024000370110923801FF91EF918F910F900FBEFF
:100250000F901F9018951F920F920FB60F921124B6
:100260008F93EF93FF9380913801811108C0E09143
:100270003801F0E0EB5FFE4F80818093C600FF9174
:10028000EF918F910F900FBE0F901F9018951092C5
:10029000C5008CE08093C40088ED8093C100E2EC3F
:1002A000F0E080818662808381E080933801109243
:1002B000370108950895BC0185E091E00E9433055F
:1002C0001092370110923801E0913701F0E0EB5FB6
:1002D000FE4F80818093C600089580913801089573
:1002E0001F920F920FB60F9211248F939F938091BC
:1002F000000190910101019690930101809300010A
:100300009F918F910F900FBE0F901F90189582E0D4
:100310008093B0009DE79093B30080937000E1EB71
:10032000F0E08081856080831092B2000895FF9292
:100330000F931F93CF93DF93EC01F42E89010E945A
:100340003305FF86198B088B1B8A1A8A1D8A1C8A23
:100350001F8A1E8A198E188E1B8E1C8E1D8E1E8E55
:100360001F8E18A219A21AA21A8EDF91CF911F9187
:100370000F91FF9008954F925F926F927F928F92AC
:100380009F92AF92BF92CF92DF92EF92FF920F9324
:100390001F93CF93DF93EC018B018A8D8F5F8430A5
:1003A00014F48A8F01C01A8E8B8C9C8CAD8CBE8C01
:1003B0002DEC3CEC4CEC5DE36F8D78A189A19AA10A
:1003C0000E946B042B013C01F80100811181B801EE
:1003D000012E000C880B990B0E94B6036B017C0167
:1003E000A3019201C501B4010E944303A701960134
:1003F0000E94AF0387FD0CC0A3019201C501B401A7
:100400000E944203A70196010E94660418164CF44C
:100410008A8DF2E08F02C00DD11D11241B8B0A8B37
:1004200002C082E08BA3DF91CF911F910F91FF90CB
:10043000EF90DF90CF90BF90AF909F908F907F9084
:100440006F905F904F9008954F925F926F927F925E
:10045000AF92BF92CF92DF92EF92FF920F931F93D2
:10046000CF93DF93EC014B8C5C8C6D8C7E8C8C017C
:100470000E5E1F4F5C018AE1A80EB11CC12CD12C6D
:100480007601F801619171918F01072E000C880BA4
:10049000990B0E94B6039B01AC01C301B2010E94FB
:1004A00042039B01AC010E946B049B01AC01C7019C
:1004B000B6010E9443036B017C01A016B10609F747
:1004C00020E030E040E85EE30E946B040E94DE041E
:1004D0006F8F78A389A39AA3DF91CF911F910F917A
:1004E000FF90EF90DF90CF90BF90AF907F906F9094
:1004F0005F904F900895AF92BF92CF92DF92EF92AC
:10050000FF920F931F93CF93DF93EC018C010E5E4C
:100510001F4F5C018AE1A80EB11CC12CD12C7601C1
:10052000F801619171918F01072E000C880B990BD6
:100530000E94B6039B01AC01C701B6010E944303B0
:100540006B017C010A151B0559F720E030E040E8FB
:100550005EE30E946B046B8F7C8F8D8F9E8FDF918B
:10056000CF911F910F91FF90EF90DF90CF90BF90B0
:10057000AF900895CF93DF93CDB7DEB7C854D109BC
:100580000FB6F894DEBF0FBECDBF80E88093610048
:1005900082E08093610087E084B90E9487010E9415
:1005A00047010E94480021E030E041E050E061E472
:1005B00070E0CE0101960E94970122E030E041E018
:1005C00050E061E470E0CE0185960E94970184E0DE
:1005D000D82E7E0121E9E20EF11C94E2C92E789416
:1005E00083B7817F83BF83B7816083BF889583B7DB
:1005F0008E7F83BF80910001909101018D3791051D
:10060000C9F40E945A000E945D0085B18D2585B90C
:100610008E010F5F1F4FC8010E947B02C8010E941C
:1006200024020C5D1F4F0E151F05A9F71092010142
:10063000109200010E94E100892BE9F080913901BC
:100640008823C9F00E94DC008C010E94EA009C0112
:10065000C29EC001C39E900D1124B80121E030E07C
:100660002C0F3D1F820F931F0E94BB011092390176
:100670000E945D00B4CF85B115B8109239010E9477
:100680006700ADCF5058BB27AA270E945A030C948D
:100690002C040E941E0438F00E94250420F039F436
:1006A0009F3F19F426F40C941B040EF4E095E7FB2D
:1006B0000C941504E92F0E943D0458F3BA17620701
:1006C00073078407950720F079F4A6F50C945F046E
:1006D0000EF4E0950B2EBA2FA02D0B01B90190015D
:1006E0000C01CA01A0011124FF27591B99F0593FA1
:1006F00050F4503E68F11A16F040A22F232F342FE9
:100700004427585FF3CF469537952795A795F04036
:100710005395C9F77EF41F16BA0B620B730B840B4B
:10072000BAF09150A1F0FF0FBB1F661F771F881F03
:10073000C2F70EC0BA0F621F731F841F48F487955B
:1007400077956795B795F7959E3F08F0B0CF93954D
:10075000880F08F09927EE0F9795879508950E94C6
:10076000F10308F481E00895E89409C097FB3EF492
:1007700090958095709561957F4F8F4F9F4F9923EE
:10078000A9F0F92F96E9BB279395F695879577956C
:100790006795B795F111F8CFFAF4BB0F11F460FF2C
:1007A0001BC06F5F7F4F8F4F9F4F16C0882311F084
:1007B00096E911C0772321F09EE8872F762F05C098
:1007C000662371F096E8862F70E060E02AF09A9533
:1007D000660F771F881FDAF7880F9695879597F928
:1007E0000895990F0008550FAA0BE0E8FEEF1616C2
:1007F0001706E807F907C0F012161306E407F50715
:1008000098F0621B730B840B950B39F40A2661F088
:10081000232B242B252B21F408950A2609F4A1402B
:10082000A6958FEF811D811D089597F99F6780E838
:1008300070E060E008959FEF80EC089500240A9432
:100840001616170618060906089500240A941216AB
:100850001306140605060895092E0394000C11F4DE
:10086000882352F0BB0F40F4BF2B11F460FF04C08B
:100870006F5F7F4F8F4F9F4F089557FD9058440FE4
:10088000551F59F05F3F71F04795880F97FB991FEF
:1008900061F09F3F79F087950895121613061406AC
:1008A000551FF2CF4695F1DF08C016161706180639
:1008B000991FF1CF86957105610508940895E89414
:1008C000BB2766277727CB0197F908950E94F1038C
:1008D00008F48FEF08950E947E040C942C040E946B
:1008E0001E0438F00E94250420F0952311F00C948A
:1008F00015040C941B0411240C9460040E943D0404
:1009000070F3959FC1F3950F50E0551F629FF00162
:10091000729FBB27F00DB11D639FAA27F00DB11D7B
:10092000AA1F649F6627B00DA11D661F829F222704
:10093000B00DA11D621F739FB00DA11D621F839F8B
:10094000A00D611D221F749F3327A00D611D231F61
:10095000849F600D211D822F762F6A2F11249F57AF
:1009600050409AF0F1F088234AF0EE0FFF1FBB1FB2
:10097000661F771F881F91505040A9F79E3F510571
:1009800080F00C9415040C9460045F3FE4F3983EEF
:10099000D4F3869577956795B795F795E7959F5F1B
:1009A000C1F7FE2B880F911D9695879597F90895AD
:1009B00019F416F40C941B040C941E050E944504B3
:1009C000B8F39923C9F3B6F39F57550B87FF0E94DD
:1009D0002C050024A0E640EA900180585695979592
:1009E00028F4805C660F771F881F20F026173707D2
:1009F000480730F4621B730B840B202931294A2BE2
:100A0000A69517940794202531254A2758F7660F95
:100A1000771F881F20F026173707480730F4620B2E
:100A2000730B840B200D311D411DA09581F7B90179
:100A3000842F9158880F9695879508959F3F31F0A0
:100A4000915020F4879577956795B795880F911DFC
:100A50009695879597F9089591505040660F771FA6
:100A6000881FD2F70895FB01DC0101900D92002050
:080A7000E1F70895F894FFCFAF
:00000001FF
