:100000000C9475000C9487000C9487000C94870066
:100010000C9487000C9487000C9487000C942D029C
:100020000C9487000C9487000C9487000C94870034
:100030000C9487000C9487000C9487000C94870024
:100040000C9487000C9487000C94AB010C94E8018D
:100050000C94C3010C941B010C9487000C94870032
:100060000C9487000C94870007634236B79BD8A78F
:100070001A39685618AEBAAB558C1D3CB7CC5763CD
:10008000BD6DEDFD753EF6177231BF000000803F7B
:1000900008000000BE922449123EABAAAA2ABECD97
:1000A000CCCC4C3E00000080BEABAAAAAA3E000009
:1000B0000000BF000000803F000000000008417801
:1000C000D3BB4387D1133D190E3CC3BD4282AD2B38
:1000D0003E68EC8276BED98FE1A93E4C80EFFFBE30
:1000E00001C4FF7F3F000000000011241FBECFEFBE
:1000F000D8E0DEBFCDBF21E0A0E0B1E001C01D929D
:10010000AA33B207E1F70E9489000C946F070C94A0
:100110000000CF93DF93CDB7DEB7CC56D1090FB631
:10012000F894DEBF0FBECDBFE1E6F0E080E880834B
:1001300082E0808387E084B90E9443010E944402E8
:1001400001E010E018C098012150310944E2429FBB
:10015000C001439F900D1124980141E050E061E4FB
:1001600070E0E1E0F0E0EC0FFD1F8E0F9F1F0E949A
:1001700054020F5F1F4F043011052CF3789483B79E
:10018000817F83BF83B7816083BF889583B78E7F6C
:1001900083BF80910001909101018D37910571F726
:1001A0000E945801109201011092000195B184E063
:1001B000892785B9E12CF12C15C084E28E9D800140
:1001C0008F9D100D112421E030E02C0F3D1F020FF8
:1001D000131FC8010E944C03C8010E94F2023FEFA6
:1001E000E31AF30A44E0E416F1043CF30E945B01D5
:1001F0001BC0809139018823B9F00E9496018C01BF
:100200000E94A50124E2FC012E9FC0012F9F900DAA
:100210001124B80121E030E02C0F3D1F820F931F05
:100220000E947F020E9476010E949B01892B09F3A4
:100230000E946801A3CF1F920F920FB60F92112454
:100240002F933F938F939F93209178008091790013
:1002500090E0982F8827820F911D20910201309104
:100260000301822B932B909303018093020181E081
:10027000809339019F918F913F912F910F900FBEE5
:100280000F901F901895ECE7F0E0808180648083E8
:100290008081807F8083EAE7F0E0808184688083CA
:1002A000E4E6F0E080818E7F80831092040108955F
:1002B00010920401089585B1826085B910920301FE
:1002C00010920201EAE7F0E080818864808308955B
:1002D00085B18D7F85B9EAE7F0E08081877B8083F7
:1002E000ECE7F0E08081807F8083089580910401B5
:1002F0008F5F809304011092390120910401022E36
:10030000000C330B2150310981E090E002C0880FCE
:10031000991F2A95E2F7ECE7F0E09081892B808322
:10032000EAE7F0E080818064808308958091020193
:1003300090910301089580910401823019F481E0C5
:1003400090E0089580E090E0089580910401082EE7
:10035000000C990B08951F920F920FB60F92112463
:100360008F93EF93FF93E1ECF0E080818F7B8083AC
:10037000808180648083FF91EF918F910F900FBEF9
:100380000F901F9018951F920F920FB60F92112485
:100390008F93EF93FF93E0913701F0E0EB5FFE4F17
:1003A0008081813231F481E08093380110923701ED
:1003B00007C0809137018F5F809337011092380119
:1003C000FF91EF918F910F900FBE0F901F90189596
:1003D0001F920F920FB60F9211248F93EF93FF93FA
:1003E00080913801811108C0E0913801F0E0EB5FA5
:1003F000FE4F80818093C600FF91EF918F910F9007
:100400000FBE0F901F9018951092C5008CE080933E
:10041000C40088ED8093C100E2ECF0E08081866248
:10042000808381E080933801109237010895089508
:10043000BC0185E091E00E9468071092370110929C
:100440003801E0913701F0E0EB5FFE4F808180934F
:10045000C60008958091380108951F920F920FB63B
:100460000F9211248F939F9380910001909101012D
:10047000019690930101809300019F918F910F90BD
:100480000FBE0F901F90189582E08093B0009DE7FB
:100490009093B30080937000E1EBF0E08081856081
:1004A00080831092B2000895FF920F931F93CF9311
:1004B000DF93EC01F42E89010E946807FF86198BF7
:1004C000088B80E090E009C0FC013996EE0FFF1F19
:1004D000EC0FFD1F11821082019684309105A4F368
:1004E0001B8E1C8E1D8E1E8E1F8E18A219A21AA284
:1004F0001A8EDF91CF911F910F91FF9008954F9227
:100500005F926F927F928F929F92AF92BF92CF92A3
:10051000DF92EF92FF920F931F93CF93DF93EC0143
:100520008B018A8D8F5F8A8F84300CF01A8ECB8C72
:10053000DC8CED8CFE8C6F8D78A189A19AA12DECBD
:100540003CEC4CEC5DE30E94B7044B015C019B0169
:10055000AC01C701B6010E948E032B013C01A5012D
:100560009401C701B6010E948F034B015C01F801A1
:1005700000811181B801012E000C880B990B0E949B
:1005800002046B017C019B01AC01C501B4010E9416
:10059000FB03882344F0A7019601C301B2010E9426
:1005A000B204181664F48A8D082E000C990B099673
:1005B000880F991FC80FD91F1983088302C082E0D2
:1005C0008BA3DF91CF911F910F91FF90EF90DF9060
:1005D000CF90BF90AF909F908F907F906F905F90E3
:1005E0004F9008958F929F92AF92BF92CF92DF92D9
:1005F000EF92FF920F931F93CF93DF938C01C0E094
:10060000D0E0C12CD12C760128C0F801838C948CC9
:10061000A58CB68CFE013996EE0FFF1FE00FF11F7F
:1006200060817181072E000C880B990B0E940204D7
:100630009B01AC01C501B4010E948E0320E030E0B3
:1006400040E050E40E9424059B01AC01C701B601C3
:100650000E948F036B017C012196C430D105ACF25E
:1006600020E030E040E85EE3C701B6010E94B70435
:100670000E947A05F801678F70A381A392A3DF918E
:10068000CF911F910F91FF90EF90DF90CF90BF908F
:10069000AF909F908F9008950F931F93CF93DF9308
:1006A0008C01FC01138E148E158E168EC0E0D0E0E6
:1006B0001DC0FE013996EE0FFF1FE00FF11F608194
:1006C0007181072E000C880B990B0E9402049B017C
:1006D000AC01F801638D748D858D968D0E948F031A
:1006E000F801638F748F858F968F2196C430D10562
:1006F00004F320E030E040E85EE3F801638D748DA0
:10070000858D968D0E94B704F801638F748F858F55
:10071000968FDF91CF911F910F9108955058BB276D
:10072000AA270E94A6030C9478040E946A0438F059
:100730000E94710420F039F49F3F19F426F40C94C0
:1007400067040EF4E095E7FB0C946104E92F0E9426
:10075000890458F3BA17620773078407950720F0D6
:1007600079F4A6F50C94AB040EF4E0950B2EBA2F99
:10077000A02D0B01B90190010C01CA01A0011124A7
:10078000FF27591B99F0593F50F4503E68F11A1653
:10079000F040A22F232F342F4427585FF3CF4695E4
:1007A00037952795A795F0405395C9F77EF41F1606
:1007B000BA0B620B730B840BBAF09150A1F0FF0FD0
:1007C000BB1F661F771F881FC2F70EC0BA0F621FBC
:1007D000731F841F48F4879577956795B795F795AC
:1007E0009E3F08F0B0CF9395880F08F09927EE0F41
:1007F0009795879508950E943D0408F481E0089537
:10080000E89409C097FB3EF49095809570956195AA
:100810007F4F8F4F9F4F9923A9F0F92F96E9BB2760
:100820009395F695879577956795B795F111F8CFDC
:10083000FAF4BB0F11F460FF1BC06F5F7F4F8F4F47
:100840009F4F16C0882311F096E911C0772321F03D
:100850009EE8872F762F05C0662371F096E8862FD5
:1008600070E060E02AF09A95660F771F881FDAF72C
:10087000880F9695879597F90895990F0008550F59
:10088000AA0BE0E8FEEF16161706E807F907C0F016
:1008900012161306E407F50798F0621B730B840B1E
:1008A000950B39F40A2661F0232B242B252B21F4F8
:1008B00008950A2609F4A140A6958FEF811D811D98
:1008C000089597F99F6780E870E060E008959FEFD2
:1008D00080EC089500240A941616170618060906D7
:1008E000089500240A9412161306140605060895A6
:1008F000092E0394000C11F4882352F0BB0F40F42E
:10090000BF2B11F460FF04C06F5F7F4F8F4F9F4F6D
:10091000089557FD9058440F551F59F05F3F71F0EF
:100920004795880F97FB991F61F09F3F79F0879556
:100930000895121613061406551FF2CF4695F1DFDF
:1009400008C0161617061806991FF1CF869571056F
:10095000610508940895E894BB2766277727CB01A3
:1009600097F908950E943D0408F48FEF08950E94BE
:10097000CA040C9478040E946A0438F00E9471043E
:1009800020F0952311F00C9461040C946704112459
:100990000C94AC040E94890470F3959FC1F3950FE9
:1009A00050E0551F629FF001729FBB27F00DB11DF3
:1009B000639FAA27F00DB11DAA1F649F6627B00D83
:1009C000A11D661F829F2227B00DA11D621F739F6C
:1009D000B00DA11D621F839FA00D611D221F749F7A
:1009E0003327A00D611D231F849F600D211D822FC1
:1009F000762F6A2F11249F5750409AF0F1F08823E8
:100A00004AF0EE0FFF1FBB1F661F771F881F915014
:100A10005040A9F79E3F510580F00C9461040C945E
:100A2000AC045F3FE4F3983ED4F3869577956795E1
:100A3000B795F795E7959F5FC1F7FE2B880F911D3E
:100A40009695879597F90895FA01EE0FFF1F309656
:100A500021053105A1F16115710561F48038BFE30D
:100A60009B0749F168949038810561F08038BFEFA9
:100A70009B0741F099234AF5FF3FE1053105210528
:100A800019F1E8940894E795D901AA2329F4AB2F2A
:100A9000BE2FF85FD0F310C0FF5F70F4A695E0F7AB
:100AA000F73950F019F0FF3A38F49F779F930DD043
:100AB0000F9007FC9058089546F00C94670460E08E
:100AC00070E080E89FE308954FE79F775F934F932F
:100AD0003F932F930E947A062F913F914F915F9100
:100AE0000E94B7040C94C20519F416F40C94670420
:100AF0000C94F4050E949104B8F39923C9F3B6F35A
:100B00009F57550B87FF0E9402060024A0E640EA8B
:100B1000900180585695979528F4805C660F771F52
:100B2000881F20F026173707480730F4621B730B25
:100B3000840B202931294A2BA69517940794202548
:100B400031254A2758F7660F771F881F20F0261790
:100B50003707480730F4620B730B840B200D311DEF
:100B6000411DA09581F7B901842F9158880F969562
:100B70008795089529F416F00C9461040C94AB0445
:100B80000C9467040E949104A8F39638A0F707F824
:100B90000F92E8942BE33AEA48EB5FE70E94CD041A
:100BA0000F920F920F924DB75EB70F920E94C2063E
:100BB000E8E6F0E00E9409064F915F91EF91FF9106
:100BC000E595EE1FFF1F49F0FE57E0684427EE0F42
:100BD000441FFA95E1F74195550B0E943C060F9092
:100BE00007FE0C94300608959F3F31F0915020F499
:100BF000879577956795B795880F911D96958795F9
:100C000097F9089591505040660F771F881FD2F7CB
:100C10000895DF93CF931F930F93FF92EF92DF928C
:100C20007B018C01689406C0DA2EEF010E94CA0491
:100C3000FE01E894A5912591359145915591A6F332
:100C4000EF010E94A603FE019701A801DA9469F75B
:100C5000DF90EF90FF900F911F91CF91DF9108955A
:100C60009B01AC0160E070E080E89FE30C94F60625
:100C70000C9461040C94F4050E949104D8F3992318
:100C8000C9F3940F511DA3F39150504094F059F0C3
:100C9000882332F0660F771F881F91505040C1F7AC
:100CA0009E3F51052CF7880F911D9695879597F9D2
:100CB00008955F3FACF0983E9CF0BB2786957795F2
:100CC0006795B79508F4B1609395C1F7BB0F58F7D6
:100CD00011F460FFE8CF6F5F7F4F8F4F9F4FE3CFDF
:100CE0000C94AC0416F00C94F4050C94670468940E
:100CF0000C9461040E949104A8F39923C1F3AEF30C
:100D0000DF93CF931F930F93FF92C92FDD27882383
:100D10002AF02197660F771F881FDAF720E030E06E
:100D200040E85FEB9FE3883920F0803E38F0219661
:100D30008F770E948F03E0E9F0E004C00E948F03E8
:100D4000EDEBF0E00E9409068B01BE01EC01FB2EE9
:100D50006F5771097595771F880B990B0E940204D4
:100D600028E132E741E35FE30E94CA04AF2D980116
:100D7000AE01FF900F911F91CF91DF910E94A603CA
:100D80000C947804FA01DC01AA0FBB1F9B01AC0193
:100D9000BF5728F4222733274427507820C0B75163
:100DA00090F4AB2F0024469537952795011CA39509
:100DB000D2F3002071F0220F331F441FB395DAF3F2
:100DC0000ED00C948E0361307105A0E88A07B946F5
:100DD00030F49B01AC0166277727882790783096FE
:100DE00021F0208331834283538308950E940A07B0
:100DF0000C9478040E94710458F00E946A0440F038
:100E000029F45F3F29F00C94610451110C94AC0457
:100E10000C9467040E94890468F39923B1F3552365
:100E200091F3951B550BBB27AA27621773078407FD
:100E300038F09F5F5F4F220F331F441FAA1FA9F393
:100E400035D00E2E3AF0E0E832D091505040E69581
:100E5000001CCAF72BD0FE2F29D0660F771F881FE2
:100E6000BB1F261737074807AB07B0E809F0BB0BD5
:100E7000802DBF01FF2793585F4F3AF09E3F5105E9
:100E800078F00C9461040C94AC045F3FE4F3983E5A
:100E9000D4F3869577956795B795F7959F5FC9F7D2
:100EA000880F911D9695879597F90895E1E0660F53
:100EB000771F881FBB1F621773078407BA0720F0CC
:100EC000621B730B840BBA0BEE1F88F7E095089535
:100ED000FB01DC0101900D920020E1F70895F894E8
:020EE000FFCF42
:00000001FF
