:100000000C9434000C9451000C9451000C94510049
:100010000C9451000C9451000C9451000C9461010B
:100020000C9451000C9451000C9451000C9451000C
:100030000C9451000C9451000C9451000C945100FC
:100040000C9451000C9451000C94DF000C941C0192
:100050000C94F7000C9453000C9451000C94510034
:100060000C9451000C94510011241FBECFEFD8E026
:10007000DEBFCDBF11E0A0E0B1E0E6EEF0E102C0EE
:1000800005900D92A031B107D9F721E0A0E1B1E0D0
:1000900001C01D92A934B207E1F70E94AB020C9493
:1000A00071080C9400001F920F920FB60F9211244A
:1000B0002F933F938F939F93EF93FF93309114016E
:1000C000ECE7F0E0208181E090E002C0880F991F0A
:1000D0003A95E2F78095909582238083209178006D
:1000E0008091120190911301822B909313018093C0
:1000F0001201209179008091120190911301922BAD
:100100009093130180931201FF91EF919F918F9132
:100110003F912F910F900FBE0F901F901895ECE715
:10012000F0E0808180648083EAE7F0E080818C6A7F
:1001300080830895ECE7F0E08081807F80831092D7
:1001400013011092120110921401EAE7F0E080818D
:1001500086608083089595B182E0892785B9EAE7B2
:10016000F0E080818F7A808310921401089580914D
:1001700014018F5F8093140130911401ECE7F0E0DB
:10018000208181E090E001C0880F3A95EAF7822B48
:10019000808308958091120190911301089584E065
:1001A00090E008952091140181E090E0223011F058
:1001B00080E090E008958091140190E008951F92EE
:1001C0000F920FB60F9211248F93EF93FF93E1ECF0
:1001D000F0E080818F7B8083808180648083FF91C9
:1001E000EF918F910F900FBE0F901F9018951F9257
:1001F0000F920FB60F9211248F93EF93FF93E0911C
:100200004701F0E0EB5EFE4F8081813231F481E006
:10021000809348011092470107C0809147018F5F8A
:100220008093470110924801FF91EF918F910F90B9
:100230000FBE0F901F9018951F920F920FB60F923E
:1002400011248F93EF93FF9380914801811108C08F
:10025000E0914801F0E0EB5EFE4F80818093C600A4
:10026000FF91EF918F910F900FBE0F901F901895F7
:100270001092C5008CE08093C40088ED8093C1008B
:10028000E2ECF0E080818662808381E08093480127
:100290001092470108950895BC0185E191E00E9404
:1002A00080051092470110924801E0914701F0E06B
:1002B000EB5EFE4F80818093C600089580914801D7
:1002C00008951F920F920FB60F9211248F939F9350
:1002D00080911001909111010196909311018093EA
:1002E00010019F918F910F900FBE0F901F90189546
:1002F00082E08093B0009DE79093B30080937000FC
:10030000E1EBF0E08081856080831092B200089577
:10031000FF920F931F93CF93DF93EC01F42E89018B
:100320000E948005FF86198B088B1B8A1A8A1D8AFA
:100330001C8A1F8A1E8A198E188E1B8E1C8E1D8E7B
:100340001E8E1F8E18A219A21AA21A8EDF91CF91AB
:100350001F910F91FF9008954F925F926F927F923D
:100360008F929F92AF92BF92CF92DF92EF92FF92C5
:100370000F931F93CF93DF93EC018B018A8D8F5FD7
:10038000843014F48A8F01C01A8E8B8C9C8CAD8CB7
:10039000BE8C2DEC3CEC4CEC5DE36F8D78A189A11B
:1003A0009AA10E94B8042B013C01F801008111813F
:1003B000B801012E000C880B990B0E9403046B01FD
:1003C0007C01A3019201C501B4010E949003A70121
:1003D00096010E94FC0387FD0CC0A3019201C50198
:1003E000B4010E948F03A70196010E94B30418165E
:1003F0004CF48A8DF2E08F02C00DD11D11241B8BAD
:100400000A8B02C082E08BA3DF91CF911F910F91E5
:10041000FF90EF90DF90CF90BF90AF909F908F9024
:100420007F906F905F904F9008954F925F926F9280
:100430007F92AF92BF92CF92DF92EF92FF920F9393
:100440001F93CF93DF93EC014B8C5C8C6D8C7E8C77
:100450008C010E5E1F4F5C018AE1A80EB11CC12CFD
:10046000D12C7601F801619171918F01072E000C5A
:10047000880B990B0E9403049B01AC01C301B201DC
:100480000E948F039B01AC010E94B8049B01AC0148
:10049000C701B6010E9490036B017C01A016B10652
:1004A00009F720E030E040E85EE30E94B8040E94D3
:1004B0002B056F8F78A389A39AA3DF91CF911F910A
:1004C0000F91FF90EF90DF90CF90BF90AF907F9013
:1004D0006F905F904F900895AF92BF92CF92DF924E
:1004E000EF92FF920F931F93CF93DF93EC018C0158
:1004F0000E5E1F4F5C018AE1A80EB11CC12CD12CED
:100500007601F801619171918F01072E000C880B23
:10051000990B0E9403049B01AC01C701B6010E9424
:1005200090036B017C010A151B0559F720E030E0B0
:1005300040E85EE30E94B8046B8F7C8F8D8F9E8FA6
:10054000DF91CF911F910F91FF90EF90DF90CF90AF
:10055000BF90AF900895CF93DF93CDB7DEB7CA5762
:10056000D1090FB6F894DEBF0FBECDBF80E88093EF
:10057000610082E08093610087E084B90E94780185
:100580000E9438010E948F00289A21E030E041E06B
:1005900050E061E470E0CE0101960E94880122E003
:1005A00030E041E050E061E470E0CE0185960E94C9
:1005B000880100E010E094E0592E4E0121E9820EFE
:1005C000911C4424439424E2722E32E1632E40E0D5
:1005D000A42E41E0B42E6E0139E4C30ED11C7894F0
:1005E00083B7817F83BF83B7816083BF889583B7DB
:1005F0008E7F83BF80911001909111018D379105FD
:10060000C1F40E949A0085B1852585B9CE01019675
:100610007C01C7010E946C02C7010E94150294E28E
:10062000E90EF11CE814F904A1F7109211011092DF
:1006300010010E94D200892BF1F40E94CF00892B77
:10064000D1F085B1842585B90E94CA007C010E9441
:10065000DB009C01729EC001739E900D1124B701B6
:1006600021E030E02C0F3D1F820F931F0E94AC0150
:100670000E94B70006C00E94D200892B11F00E9490
:10068000AB000E945E01882309F4A9CF0230110556
:100690000CF0A5CF709ED001719EB00D112481E0A9
:1006A00090E08C0F9D1FA80FB91F5A968C915A97F6
:1006B000609EF001619EF00D1124E80FF11D87FD91
:1006C000FA953996EE0FFF1F21E030E02C0F3D1F09
:1006D000E20FF31F81818F9380818F9393968C918A
:1006E0009397282F082E000C330B3F938F931F9660
:1006F0008C911F971F928F93BF93AF93BF92AF922E
:10070000DF92CF920E948705C6010E944C010F5FC5
:100710001F4F0FB6F894DEBF0FBECDBF60CF50584D
:10072000BB27AA270E94A7030C9479040E946B049C
:1007300038F00E94720420F039F49F3F19F426F437
:100740000C9468040EF4E095E7FB0C946204E92F26
:100750000E948A0458F3BA17620773078407950743
:1007600020F079F4A6F50C94AC040EF4E0950B2E71
:10077000BA2FA02D0B01B90190010C01CA01A001F3
:100780001124FF27591B99F0593F50F4503E68F14E
:100790001A16F040A22F232F342F4427585FF3CF8F
:1007A000469537952795A795F0405395C9F77EF460
:1007B0001F16BA0B620B730B840BBAF09150A1F0A9
:1007C000FF0FBB1F661F771F881FC2F70EC0BA0F2F
:1007D000621F731F841F48F4879577956795B795B7
:1007E000F7959E3F08F0B0CF9395880F08F09927B2
:1007F000EE0F9795879508950E943E0408F481E0D6
:100800000895E89409C097FB3EF490958095709503
:1008100061957F4F8F4F9F4F9923A9F0F92F96E94C
:10082000BB279395F695879577956795B795F111C1
:10083000F8CFFAF4BB0F11F460FF1BC06F5F7F4F5E
:100840008F4F9F4F16C0882311F096E911C0772370
:1008500021F09EE8872F762F05C0662371F096E879
:10086000862F70E060E02AF09A95660F771F881F48
:10087000DAF7880F9695879597F90895990F0008EC
:10088000550FAA0BE0E8FEEF16161706E807F90762
:10089000C0F012161306E407F50798F0621B730BFD
:1008A000840B950B39F40A2661F0232B242B252B7E
:1008B00021F408950A2609F4A140A6958FEF811D21
:1008C000811D089597F99F6780E870E060E00895C2
:1008D0009FEF80EC089500240A9416161706180658
:1008E0000906089500240A94121613061406050634
:1008F0000895092E0394000C11F4882352F0BB0FC5
:1009000040F4BF2B11F460FF04C06F5F7F4F8F4F27
:100910009F4F089557FD9058440F551F59F05F3F62
:1009200071F04795880F97FB991F61F09F3F79F011
:1009300087950895121613061406551FF2CF469593
:10094000F1DF08C0161617061806991FF1CF869515
:100950007105610508940895E894BB2766277727F9
:10096000CB0197F908950E943E0408F48FEF089593
:100970000E94CB040C9479040E946B0438F00E940E
:10098000720420F0952311F00C9462040C94680416
:1009900011240C94AD040E948A0470F3959FC1F356
:1009A000950F50E0551F629FF001729FBB27F00D1D
:1009B000B11D639FAA27F00DB11DAA1F649F662772
:1009C000B00DA11D661F829F2227B00DA11D621FC1
:1009D000739FB00DA11D621F839FA00D611D221F7B
:1009E000749F3327A00D611D231F849F600D211D5F
:1009F000822F762F6A2F11249F5750409AF0F1F0E2
:100A000088234AF0EE0FFF1FBB1F661F771F881F4A
:100A100091505040A9F79E3F510580F00C9462041C
:100A20000C94AD045F3FE4F3983ED4F3869577953C
:100A30006795B795F795E7959F5FC1F7FE2B880FF0
:100A4000911D9695879597F9089519F416F40C94CD
:100A500068040C946B050E949204B8F39923C9F3BF
:100A6000B6F39F57550B87FF0E9479050024A0E637
:100A700040EA900180585695979528F4805C660F5F
:100A8000771F881F20F026173707480730F4621BAE
:100A9000730B840B202931294A2BA69517940794B0
:100AA000202531254A2758F7660F771F881F20F029
:100AB00026173707480730F4620B730B840B200DA1
:100AC000311D411DA09581F7B901842F9158880FE0
:100AD0009695879508959F3F31F0915020F4879522
:100AE00077956795B795880F911D9695879597F996
:100AF000089591505040660F771F881FD2F70895D0
:100B0000FB01DC0101900D920020E1F70895AEE0B9
:100B1000B0E0EDE8F5E00C9448080D891E8986E008
:100B20008C831A8309838FEF9FE79E838D83AE01A9
:100B3000475E5F4F6F89788DCE0101960E94A905AF
:100B4000EF81F885E00FF11F10822E96E4E00C94FF
:100B50006408ABE0B0E0EFEAF5E00C943A086C0111
:100B60007B018A01FC0117821682838181FFCCC13F
:100B7000CE0101963C01F6019381F70193FD859129
:100B800093FF81917F01882309F4BAC1853239F43A
:100B900093FD859193FF81917F01853229F4B60100
:100BA00090E00E94A007E7CF912C212C312CFFE18F
:100BB000F315D8F08B3279F038F4803279F0833243
:100BC000A1F4232D20611DC08D3261F0803369F4C2
:100BD000232D216016C0832D8260382EE32DE46022
:100BE0003E2E2AC0F32DF8601DC037FC2DC020ED2D
:100BF000280F2A3040F08E32B9F436FC81C1232D03
:100C00002064322E19C036FE06C08AE0989E200D60
:100C10001124922E11C0EAE02E9E200D1124222EC6
:100C2000F32DF0623F2E08C08C3621F4832D8068AE
:100C3000382E02C0883641F4F70193FD859193FF69
:100C400081917F018111B3CF982F9F7D955493306F
:100C500028F40C5F1F4F9FE399830DC0833631F05A
:100C6000833771F0833509F059C021C0F8018081C4
:100C700089830E5F1F4F88248394912C530113C0E6
:100C80002801F2E04F0E511CF801A080B18036FE21
:100C900003C0692D70E002C06FEF7FEFC5010E94B5
:100CA00095074C018201F32DFF773F2E16C02801D6
:100CB00022E0420E511CF801A080B18036FE03C034
:100CC000692D70E002C06FEF7FEFC5010E948A07B7
:100CD0004C01F32DF0683F2E820133FC1BC0822DA6
:100CE00090E088169906B0F4B60180E290E00E9488
:100CF000A0072A94F4CFF50137FC859137FE819146
:100D00005F01B60190E00E94A00721102A9421E023
:100D1000821A91088114910471F7E8C0843611F0A9
:100D2000893641F5F80137FE07C060817181828103
:100D300093810C5F1F4F08C060817181072E000CEA
:100D4000880B990B0E5F1F4FF32DFF763F2E97FFF9
:100D500009C090958095709561957F4F8F4F9F4FFB
:100D6000F0683F2E2AE030E0A3010E94DC07882EC5
:100D7000861845C0853731F4232D2F7EB22E2AE008
:100D800030E025C0932D997FB92E8F36C1F018F42D
:100D9000883579F0B5C0803719F0883721F0B0C0B8
:100DA000E92FE061BE2EB4FE0DC0FB2DF460BF2E16
:100DB00009C034FE0AC0292F2660B22E06C028E0E2
:100DC00030E005C020E130E002C020E132E0F8016F
:100DD000B7FE07C060817181828193810C5F1F4FD4
:100DE00006C06081718180E090E00E5F1F4FA3011B
:100DF0000E94DC07882E8618FB2DFF773F2E36FEDB
:100E00000DC0232D2E7FA22E891458F434FE0BC062
:100E100032FC09C0832D8E7EA82E05C0B82CA32CD1
:100E200003C0B82C01C0B92CA4FE0FC0FE01E80D10
:100E3000F11D8081803321F49A2D997EA92E09C05D
:100E4000A2FE06C0B394B39404C08A2D867809F03C
:100E5000B394A3FC11C0A0FE06C0B21488F4280C01
:100E6000922C9B180EC0B21460F4B60180E290E0A0
:100E70000E94A007B394F7CFB21418F42B1802C045
:100E8000982C212CA4FE10C0B60180E390E00E94B3
:100E9000A007A2FE17C0A1FC03C088E790E002C033
:100EA00088E590E0B6010CC08A2D867859F0A1FE45
:100EB00002C08BE201C080E2A7FC8DE2B60190E0A7
:100EC0000E94A007891438F4B60180E390E00E94E4
:100ED000A0079A94F7CF8A94F301E80DF11D808161
:100EE000B60190E00E94A0078110F5CF222009F4FE
:100EF00042CEB60180E290E00E94A0072A94F6CF8D
:100F0000F6018681978102C08FEF9FEF2B96E2E179
:100F10000C945608FC010590615070400110D8F700
:100F2000809590958E0F9F1F0895FC016150704031
:100F300001900110D8F7809590958E0F9F1F08950E
:100F40000F931F93CF93DF93FB01238121FD03C0F8
:100F50008FEF9FEF2CC022FF16C04681578124815E
:100F600035814217530744F4A081B1819D012F5F61
:100F70003F4F318320838C93268137812F5F3F4FF2
:100F80003783268314C08B01EC01FB010084F185BB
:100F9000E02D0995892BE1F6D80116968D919C914B
:100FA0001797019617969C938E931697CE01DF9113
:100FB000CF911F910F910895FA01AA27283051F17E
:100FC000203181F1E8946F936E7F6E5F7F4F8F4F7A
:100FD0009F4FAF4FB1E03ED0B4E03CD0670F781FD9
:100FE000891F9A1FA11D680F791F8A1F911DA11DBE
:100FF0006A0F711D811D911DA11D20D009F46894F7
:101000003F912AE0269F11243019305D3193DEF69E
:10101000CF010895462F4770405D4193B3E00FD054
:10102000C9F7F6CF462F4F70405D4A3318F0495D3F
:1010300031FD4052419302D0A9F7EACFB4E0A69522
:101040009795879577956795BA95C9F70097610544
:10105000710508959B01AC010A2E0694579547959A
:1010600037952795BA95C9F7620F731F841F951F8F
:10107000A01D08952F923F924F925F926F927F92A0
:101080008F929F92AF92BF92CF92DF92EF92FF9298
:101090000F931F93CF93DF93CDB7DEB7CA1BDB0B44
:1010A0000FB6F894DEBF0FBECDBF09942A883988E9
:1010B00048885F846E847D848C849B84AA84B984F0
:1010C000C884DF80EE80FD800C811B81AA81B981FC
:1010D000CE0FD11D0FB6F894DEBF0FBECDBFED0110
:0610E0000895F894FFCF13
:1010E60025737C25697C25697C25697C2569210019
:00000001FF
